:020000040800F2
:10000000600600206D010008D9060008ED05000813
:10001000D5060008790400081D1100080000000042
:10002000000000000000000000000000650A000859
:100030007D04000800000000090A0008510B0008B8
:100040008701000887010008870100088701000870
:100050008701000887010008870100088701000860
:100060008701000887010008870100088701000850
:100070008701000887010008870100088701000840
:100080008701000887010008870100088701000830
:100090008701000887010008870100088701000820
:1000A0008701000887010008870100088701000810
:1000B0008701000887010008870100088701000800
:1000C00087010008870100088701000887010008F0
:1000D00087010008870100088701000887010008E0
:1000E00087010008870100088701000800F002F876
:1000F00000F02CF80AA090E8000C82448344AAF196
:100100000107DA4501D100F021F8AFF2090EBAE893
:100110000F0013F0010F18BFFB1A43F0010318473B
:10012000AC1F0000BC1F0000002300240025002697
:10013000103A28BF78C1FBD8520728BF30C148BF4A
:100140000B6070471FB51FBD10B510BD00F031F832
:100150001146FFF7F7FF00F0E3FF00F04FF803B49C
:10016000FFF7F2FF03BC00F057F800000948804792
:1001700009480047FEE7FEE7FEE7FEE7FEE7FEE789
:10018000FEE7FEE7FEE7FEE704480549054A064BA1
:1001900070470000550B0008ED00000860000020CB
:1001A0006006002060020020600200207047704757
:1001B0007047754600F02CF8AE4605006946534678
:1001C00020F00700854618B020B5FFF7DDFFBDE839
:1001D00020404FF000064FF000074FF000084FF0AE
:1001E000000B21F00701AC46ACE8C009ACE8C0093F
:1001F000ACE8C009ACE8C0098D46704710B50446AC
:10020000AFF300802046BDE81040FFF7A8BF000014
:10021000004870470000002001491820ABBEFEE7EF
:1002200026000200704721B1826842F0010282601C
:1002300003E0826822F001028260704701460020DC
:100240008A6802F004020AB1012000E00020704731
:100250000146C86C80B270470246002013680B400C
:100260000BB1012000E000207047014600208A68A1
:1002700002F008020AB1012000E0002070470000EF
:1002800030B502460020002350680F4C20400D7905
:100290000C6844EA05242043506090680B4C2040D1
:1002A000D1E902542C434D7944EA4504204390603F
:1002B000D06A20F470000C7C641EE4B2234340EA50
:1002C0000350D06230BD0000FFFEF0FFFDF7F1FFEC
:1002D000F0B504460D4600200021092D11DDE0682F
:1002E000A5F10A0606EB4607072606FA07F188433A
:1002F000A5F10A0606EB460603FA06F10843E0609C
:100300000CE0206905EB4507072606FA07F188434C
:1003100005EB450603FA06F108432061072A0FDAC8
:10032000606B561E06EB86071F2606FA07F1884308
:10033000561E06EB860605FA06F10843606322E0C6
:100340000D2A0FDA206BD61F06EB86071F2606FA4A
:1003500007F18843D61F06EB860605FA06F1084327
:10036000206310E0E06AA2F10D0606EB86071F2667
:1003700006FA07F18843A2F10D0606EB860605FA98
:1003800006F10843E062F0BD816841F00801816038
:10039000704721B1826842F4A002826003E0826863
:1003A00022F4A00282607047816841F004018160FC
:1003B0007047000010B501210648FFF7EAFF00BFB3
:1003C00002210448FFF748FF0028F9D00148FFF751
:1003D0003FFF10BD0024014000B587B0012104207B
:1003E00000F030FB0121480200F02CFB4FF40040EC
:1003F00000F00CFB00208DF81B000220ADF8180067
:1004000003208DF81A0006A9194800F05BF80523AF
:10041000012211461748FFF75BFF00208DF8090005
:1004200004904FF4602003900020019001208DF88B
:10043000140000208DF8080001A90E48FFF720FFE6
:1004400001210C48FFF7EFFE0A48FFF79DFF00BFB0
:100450000848FFF70AFF0128FAD00648FFF7A4FF73
:1004600000BF0448FFF7EAFE0128FAD007B000BD3C
:10047000000801400024014000BFFEE7704700B5BE
:10048000034603E04FF47A7000F005F8181EA3F15C
:100490000103F7D100BD00EBC001C9004FF0E0221D
:1004A0005161002191610521116100BF4FF0E021F0
:1004B000096901F480310029F8D004214FF0E022CD
:1004C000116170472DE9F041024600250026002009
:1004D00000230024002791F803C00CF00F0591F8C9
:1004E00003C00CF0100CBCF1000F03D091F802C057
:1004F0004CEA050591F800C0BCF1000F31D014683A
:1005000000202BE04FF0010C0CFA00F3B1F800C012
:100510000CEA03069E4220D183004FF00F0C0CFA28
:1005200003F7BC4305FA03FC4CEA040491F803C04A
:10053000BCF1280F06D14FF0010C0CFA00FCC2F8F8
:1005400014C00AE091F803C0BCF1480F05D14FF088
:10055000010C0CFA00FCC2F810C0401C0828D1D3D2
:100560001460B1F800C0BCF1FF0F34DD5468002006
:100570002EE000F1080C4FF0010808FA0CF3B1F876
:1005800000C00CEA03069E4221D183004FF00F0CFD
:100590000CFA03F7BC4305FA03FC4CEA040491F897
:1005A00003C0BCF1280F05D100F1080C08FA0CF8C3
:1005B000C2F8148091F803C0BCF1480F07D100F1D4
:1005C000080C4FF0010808FA0CF8C2F81080401C23
:1005D0000828CED35460BDE8F081416170470161C5
:1005E00070470AB1016100E04161704700BFFEE75A
:1005F00010B50446204600F009FC024991FBF0F0DA
:1006000080B210BD40420F0070B50446204600F095
:1006100000FC642100FB01F5034800F0F7FB95FBAB
:10062000F0F080B270BD00000004004000B587B05B
:100630000121022000F0F6F90121042000F002FA65
:1006400048208DF81B004020ADF8180003208DF8DD
:100650001A0006A91D48FFF735FF1D4800F032FCBF
:100660000020ADF80E004FF6FF70ADF810004720E7
:10067000ADF80C0000208DF8140003A9144800F018
:10068000FBFC0020ADF800000F20ADF808000020B2
:10069000ADF80200ADF806000120ADF804005021CD
:1006A0000B4800F0A9FC0421094800F0AEFC6946A3
:1006B000074800F0B1FB6946054800F05FFC0121E6
:1006C000034800F097FB07B000BD000000080140A0
:1006D0000004004000BFFEE7704770B500240EE044
:1006E0000021204600F0EFF8002504E0002000F093
:1006F0007BF9681CC5B2802DF8DB601CC4B2082CE5
:10070000EEDB70BD08B50121082000F09BF9142034
:100710008DF8030003208DF802004FF48050ADF8EF
:10072000000069460A48FFF7CDFE4FF40050ADF8CF
:10073000000069460648FFF7C5FE01221103044880
:10074000FFF74FFF012251030148FFF74AFF08BDA1
:10075000000C014070B50546002415E080202041C2
:1007600000EA05024FF400510E48FFF73AFF01225C
:1007700011030C48FFF735FF00224FF48051094860
:10078000FFF72FFF601CC4B2082CE7DB0122110326
:100790000448FFF726FF00224FF480510148FFF77D
:1007A00020FF70BD000C014010B5012251030A4822
:1007B000FFF717FF012211030748FFF712FF00227E
:1007C0004FF400510448FFF70CFF00224FF4805112
:1007D0000148FFF706FF10BD000C014010B50022D4
:1007E0004FF400510648FFF7FCFE012211030448B4
:1007F000FFF7F7FE012251030148FFF7F2FE10BD9B
:10080000000C014070B5002406E0002500E06D1CDE
:10081000B5F57A7FFBD3641CB4F57A7FF5D3FFF787
:1008200071FFAE2000F0D0F8D52000F0CDF8802088
:1008300000F0CAF8A82000F0C7F83F2000F0C4F884
:10084000D32000F0C1F8002000F0BEF8402000F0F6
:10085000BBF8A12000F0B8F8C82000F0B5F8DA2005
:1008600000F0B2F8122000F0AFF8812000F0ACF8F0
:10087000CF2000F0A9F8D92000F0A6F8F12000F070
:10088000A3F8DB2000F0A0F8302000F09DF8A420B1
:1008900000F09AF8A62000F097F88D2000F094F868
:1008A000142000F091F8AF2000F08EF8FFF715FF4C
:1008B00070BD10B50246012000E050430B1EA1F1AF
:1008C0000101FAD110BD70B505460C4645F0B000E7
:1008D00000F07AF8102141EA141000F075F804F0E5
:1008E0000F0000F071F870BD2DE9F04105460E468D
:1008F0001746721ED206110E6A1E5206100EFFF720
:10090000E2FF002409E0A7F12001134A02EB0111E4
:10091000085D00F069F8601CC4B2082CF3DB721E9D
:10092000D206110E6A1E012303EB4202D0B2FFF77A
:10093000CAFF00240BE0A7F12001074A02EB0112D5
:1009400004F10801505C00F04FF8601CC4B2082CA0
:10095000F1DBBDE8F0810000DA1A00082DE9F0476C
:1009600080460E4617461D46002415E0281B411EF2
:100970000A20FFF79EFFB7FBF0F00A21B0FBF1F26F
:1009800001FB120000F130093019C1B24A4640465D
:10099000FFF7AAFF601CC4B2AC42E7DBBDE8F087FA
:1009A0002DE9F04107460E461546002407E02A5D72
:1009B0003019C1B23846FFF797FF601CC4B2285DFA
:1009C0000028F4D1BDE8F08110B50446FFF7ECFE35
:1009D0007820FFF7BFFE0020FFF7BCFE2046FFF7A0
:1009E000B9FEFFF7FBFE10BD10B50446FFF7DCFEB5
:1009F0007820FFF7AFFE4020FFF7ACFE2046FFF760
:100A0000A9FEFFF7EBFE10BD704700000146002075
:100A1000034A506820F4404008435060704700008B
:100A20000010024029B1064AD2690243044BDA6140
:100A300004E0034AD2698243014BDA617047000047
:100A40000010024029B1064A92690243044B9A61A0
:100A500004E0034A92698243014B9A6170470000A7
:100A600000100240704710B500F002F810BD000001
:100A70000CB50020019000903348006840F48030AD
:100A80003149086000BF3048006800F40030009031
:100A90000198401C0190009818B90198B0F5A06F1A
:100AA000F1D12948006800F4003010B10120009015
:100AB00001E0002000900098012843D123480068FD
:100AC00040F01000214908600846006820F003004B
:100AD00008600846006840F0020008601A48406854
:100AE000194948600846406848600846406840F434
:100AF000806048600846406820F47C1048600846E2
:100B0000406840F4E81048600846006840F0807093
:100B1000086000BF0C48006800F000700028F9D0A1
:100B20000948406820F003000749486008464068CB
:100B300040F00200486000BF0348406800F00C002D
:100B40000828F9D10CBD000000100240002002402E
:100B50007047000010B51348006840F001001149CB
:100B6000086008464068104908400E494860084639
:100B700000680E4908400B4908600846006820F4E8
:100B8000802008600846406820F4FE0048604FF46A
:100B90001F008860FFF767FF4FF00060044908609E
:100BA00010BD0000001002400000FFF8FFFFF6FE3D
:100BB00008ED00E0F0B50C46154600220021068C39
:100BC0004FF6FE773E400684028B018C4FF60C7682
:100BD00032407E1C06EA03162E433243104EB042CA
:100BE0000ED0104EB0420BD0B0F1804F08D00E4E58
:100BF000B04205D00D4EB04202D00D4EB04206D1EB
:100C00004FF6FD76314044F00106314305E04FF6E2
:100C1000F576314044F00106314302830184F0BD92
:100C2000002C014000340140000400400008004056
:100C3000000C0040F0B50C461546002200210026AD
:100C4000078C4FF6EF7C07EA0C070784028B018CB8
:100C50004FF6FF7707EA041640F6FF473A404FF693
:100C6000FF7707EA03373A434FF6FF7707EA05278E
:100C70003A43114FB8420ED0104FB8420BD0B0F1EA
:100C8000804F08D00E4FB84205D00E4FB84202D068
:100C90000D4FB84206D14FF6DF77394046F01007C6
:100CA000394305E04FF65F77394044F01007394388
:100CB00002830184F0BD0000002C0140003401409B
:100CC0000004004000080040000C0040F0B50C4655
:100CD0001546002200210026078C4FF6FF6C07EA1C
:100CE0000C070784828B018C4FF6FF7707EA0426F6
:100CF0004FF60C773A404FF6FF7707EA03172F437A
:100D00003A43114FB8420ED0104FB8420BD0B0F159
:100D1000804F08D00E4FB84205D00E4FB84202D0D7
:100D20000D4FB84206D14FF6FF57394046F4807751
:100D3000394305E04FF2FF57394044F48077394397
:100D400082830184F0BD0000002C0140003401408A
:100D50000004004000080040000C0040F0B50C46C4
:100D60001546002200210026078C4EF6FF7C07EA7C
:100D70000C070784828B018C4FF6FF7707EA043655
:100D800040F6FF473A404FF6FF7707EA05273A4318
:100D90004FF6FF7707EA03373A43114FB8420ED0B8
:100DA000104FB8420BD0B0F1804F08D00E4FB84270
:100DB00005D00E4FB84202D00D4FB84206D14DF6C5
:100DC000FF77394046F48057394305E047F6FF572F
:100DD000394044F48057394382830184F0BD0000D8
:100DE000002C014000340140000400400008004095
:100DF000000C004021B1028842F00102028004E0B0
:100E000002884FF6FE731A40028070470146888EB2
:100E100070470146088F704770B505460C46244858
:100E200085420ED0234885420BD0B5F1804F08D0C3
:100E30002148854205D02148854202D0204885427C
:100E400000D100E000BF208850B92389A2886188C2
:100E50002846FFF7AFFEE188284600F0E1F825E0DC
:100E6000208804280AD12389A28861882846FFF7B0
:100E7000E1FEE188284600F0DCF817E02088082829
:100E80000AD12389A28861882846FFF71FFFE188DD
:100E9000284600F0DBF809E02389A288618828460B
:100EA000FFF75CFFE188284600F0D9F870BD00002C
:100EB000002C0140003401400004004000080040C4
:100EC000000C004001894FF6F87211400181704713
:100ED00070B5002400220023058C4FF6FE763540C5
:100EE0000584028C8388048B4FF68F752C40B51EC9
:100EF0002C400D882C43751E2A400D892A434D88AD
:100F00002A43144DA8420BD0134DA84208D0134DCC
:100F1000A84205D0124DA84202D0124DA84213D1CA
:100F20004FF6F7752A404D892A434FF6FB752A4044
:100F30008D882A434FF6FF652B404FF6FF552B4017
:100F40008D892B43CD892B4383800483CD8885866F
:100F5000028470BD002C014000340140004001407B
:100F6000004401400048014000210180418081800F
:100F7000C180018141818181C18170472DE9F041AA
:100F800005460C4600260127608808B9022600E0C5
:100F90000026A088012801D1022700E0012720882F
:100FA000A0B92389A28861882846FFF703FEE1885B
:100FB000284600F035F823893A4631462846FFF79F
:100FC00039FEE188284600F034F813E02389A2882E
:100FD00061882846FFF72EFEE188284600F029F8B0
:100FE00023893A4631462846FFF7E4FDE188284642
:100FF00000F016F8BDE8F0810A46002101894FF69D
:101000008F73194011430181704702894FF6F873BD
:101010001A40028102890A43028170478186704723
:10102000028B4FF6F3731A400283028B0A4302834A
:101030007047028B4FF2FF331A400283028B4FF648
:10104000FF7303EA01231A4302837047828B4FF632
:10105000F3731A408283828B0A4382837047828BA8
:101060004FF2FF331A408283828B4FF6FF7303EAFD
:1010700001231A4382837047002202881D4B984245
:101080000ED01D4B98420BD0B0F1804F08D01B4BB7
:10109000984205D01A4B984202D01A4B984204D17C
:1010A0004FF68F731A404B881A43174B984207D05C
:1010B000164B984204D04FF6FF431A40CB881A4390
:1010C00002808B8883850B8803850A4B98420BD05E
:1010D000094B984208D00E4B984205D00D4B9842D0
:1010E00002D00D4B984201D10B7A038601238382F3
:1010F00070470000002C0140003401400004004013
:1011000000080040000C00400010004000140040A7
:1011100000400140004401400048014000BFFEE79C
:1011200008B532244FF0000901210420FFF78AFCA2
:1011300001210820FFF786FC10208DF8030008200D
:10114000ADF8000003208DF8020069465848FFF70B
:10115000B9F910208DF803008002ADF800000320DB
:101160008DF8020069465348FFF7ACF900F0B6F875
:10117000FFF748FB50A202210120FFF711FC4FA20C
:101180000A210120FFF70CFC4DA202210846FFF7BF
:1011900007FC4DA20A210220FFF702FCFFF746FAE6
:1011A000FFF71AF908214248FFF717FA7EE0B9F174
:1011B000000F0AD0601EC4B294B9B9F1000F01D17A
:1011C000012000E0002081460AE0601CC4B2642CCB
:1011D00006D1B9F1000F01D1012000E000208146C5
:1011E0000F20FFF74CF9204600F0C4F83748FFF70E
:1011F000FFF94FF47A7190FBF1F503232A4607219A
:101200000120FFF7ABFB3148FFF7FEF9054603234A
:101210002A4607210220FFF7A1FBFFF7CBF805467E
:1012200000F016FB82462A49504600F013FA834626
:1012300000F0D8F907464FF06632264B00F0D4F89C
:10124000054600F09FF88246504600F0E1FA054658
:1012500002232A4601210320FFF780FB2E220321CF
:101260000846FFF741FB1C49504600F039FB064693
:1012700000F0B2FA0A2190FBF1F201FB1205012302
:101280002A4604210320FFF769FB4FF080415046B6
:1012900000F0F2FB05D24FF480410648FFF79FF9BA
:1012A00004E04FF480410348FFF797F97FE700001F
:1012B00000080140000C0140663A00004B487A00EB
:1012C00050574D3A00000000250000000004004087
:1012D00000F07F4566660A400000204100B589B0F5
:1012E00001210846FFF79EFB4FF08040FFF7EAFD23
:1012F0000020ADF81E00ADF81A006320ADF81C0008
:1013000040F2CF20ADF8180000208DF8200006A98B
:101310004FF08040FFF7B0FE02A8FFF725FE6020E7
:10132000ADF808000020ADF810000120ADF80A006B
:101330000020ADF80E0002A94FF08040FFF7C8FD75
:1013400001210420FFF77EFB18208DF80700012003
:10135000ADF8040003208DF8060001A90448FFF74A
:10136000B1F801218807FFF745FD09B000BD000075
:101370000008014010B5044621464FF08040FFF7B9
:101380004DFE10BD21F00042A2F16052B2F5801F67
:1013900001F0004328BFD2F17F6C0BD95FEA001C3B
:1013A00043EAC20242EB507018BF704728BF20F0DA
:1013B00001007047B2F5801FBCBF184670474FEA66
:1013C000410C1CF5001F02D2084600F050BB70B55E
:1013D00000F0B4F800000089FFF7F6BF4FF00040BE
:1013E000A0F5800070470000DFF848C170B51CEA26
:1013F000111E1EBF1CEA13159EEA0C0F95EA0C0F76
:1014000000F06F8081EA030423EA4C134EEAD47E95
:1014100021EA4C1141F4801143F48013AE44A1FB46
:10142000024CA0FB0365AEF17F7E361955EB0C052F
:10143000A1FB034C4CF10003A0FB021C16EB0C06B5
:10144000654153F10003094218BF46F0010613F449
:10145000007F0BD14FEA03314FEA0530340341EAF4
:10146000155140EA16506FF003020AE04FEAC3211B
:101470004FEAC520F40241EA555140EA56506FF058
:10148000020202EB2E4201EB025585EACE710AD030
:101490005FEA440C18BF24F0004450F1000041F111
:1014A000000120EAD47040F2FE7C624500D270BD9B
:1014B000A84214BF4FF080444FF04044002E08BFB4
:1014C0000024BEF1806FA8BFA1F1C041BDE870400B
:1014D00080F282804FF0000001F1C04101F0004134
:1014E00070479EEA0C0F0CEA131518BF95EA0C0F13
:1014F00006D04FF0000081EA030E0EF0004170BDEF
:1015000000F01CF88900013E00F007B800F009B8AF
:101510004FEA430C5FEA5C5C08D081EA030100F00B
:101520005BB84FEA410C5FEA5C5CF6D14FF000001B
:10153000014970470000FF070000F87F0EF1020E1E
:101540002EF0030E5EF8046B364205D4012A43EBFD
:10155000030515F5001F12D8012841EB010C1CF5FD
:10156000001F0CD80ED14FEAD17C15F5001F0CEBF3
:101570004C0C0CF1020C08BF4CEBD37C04E04FF098
:10158000080C01E04FEAD37C0CEB4C0526FA05F67B
:1015900006F00706B6F1040C06D20EEB860CBDE889
:1015A00070404CF0010C6047DFE80CF0090B0202C0
:1015B0004FF000414FF00000A1F5002170BD194629
:1015C0001046012851EB010418BFD4F5001484BF64
:1015D000002001F0004170BD0808A0F500114FEA9D
:1015E0003101704743004FEAD30C4FEA3C0C4340B3
:1015F0001FBF40070CF1605113F0FE4F70471CF005
:10160000006F03D100200CF0004170470CF0004344
:1016100043EA507010B540EACC0000F0E2F900BF98
:10162000000000924FEA0001FFF7D6BF4FF00041E3
:101630004FF00000A1F500217047401058BFC0F1E5
:101640004040491058BFC1F140418142EFF3008052
:10165000704700004FF47F0C1CEAD0121EBF1CEA3A
:10166000D11392EA0C0F93EA0C0F00F0858090EAF8
:10167000010F48BF42F4807240F4000C41F40000B6
:101680002CF07F4120F07F4000B58142A2EB0302A5
:101690000FF2081CACEB504EC0F100009EF800E0C9
:1016A0004FEA4E0E00FB0EFC38BF49004FEA2C1CDF
:1016B00002F5FA020CFB0EF34FEACE1E4FEA112C94
:1016C0004FEAC1210EEB635E42EB22420EFB0CFCA3
:1016D0004FEA1C5300FB03114FEA112C4FEA013172
:1016E0000EFB0CFC4FEADC4C00FB0C11C14228BF86
:1016F00009184CEB03335DF804EB10EB410143EBAD
:10170000C250B2F57C0F38BF704729D512F0F00FE8
:101710001CBF00F1C04000F0004070470081828390
:101720008485868788898B8C8D8E8F9192939596F0
:1017300097999A9C9D9FA0A2A3A5A7A8AAACAEB07A
:10174000B2B3B5B7B9BCBEC0C2C5C7C9CCCED1D47F
:10175000D7D9DCDFE2E6E9ECF0F3F7FAFE000000AF
:101760004FEA400C0CF1807CBCF17E4F28BF7047E3
:10177000B0F1C04000F07BB990EA010F0CEAD11340
:1017800048BF42F48072624538BF634507D213F404
:101790007F0F16D080EA010000F00040704710B5BE
:1017A00000F01FF9097EFC3E00F005B880EA010058
:1017B00000F00040704780EA010000F0004000F0B7
:1017C00056B912F47F0F04BF0248704780EA010047
:1017D00000F04DB90000C07F41000B0ED3F19E0216
:1017E00008D950F400034FEA032323FA02F048BF5C
:1017F0004042704710B500F0F4F800BF49922480D1
:10180000002070476FF0004282EA2000704700001D
:10181000C10DD1F19E0206DB4FEA002343F00043E5
:1018200023FA02F07047004207D54FEA4001B1F1B8
:10183000FE4F02D24FF00000704710B500F0D1F813
:1018400049922480002070476FEA20007047000012
:10185000B0FA80F310FA03F2C3F19D030AD0D90560
:1018600001EB1220530638BF704700F1010008BF9A
:1018700020F001007047000050EA010C00F11380D5
:101880001CF5000F58BFBCF5000F01D4884270470B
:1018900007D710F5000F58BF11F5000F15D4884277
:1018A0007047894270471CF5000F04D5BCF5000F46
:1018B000F7D5814270474FF0807C1CEB400F38BF5A
:1018C0001CEB410F01D28142704710B500F089F83E
:1018D000922449004FF000504FF08051FFF7ADBE09
:1018E0004FF47F0C1CEAD0121EBF1CEAD11392EAFF
:1018F0000C0F93EA0C0F00F0478090EA010F48BFED
:1019000042F480724FF0004C4CEA00204CEA012176
:1019100002EB0302A0FB0113A2F50002002918BF8D
:1019200043F001035B0028BF4FEA330342EB22423E
:101930005FEA132C4CEBC2502EBFBCEB436FB2F5E9
:101940007C0F70474FEA036CBCF1004F08BF20F0DA
:101950000100B2F57C0F38BF70470BD582F0FF0253
:1019600012F5803FC8BF704700F1C040D8BF00F0FB
:101970000040704700F5000C5FEA4C0C48BF704710
:10198000B0F1C04000F073B890EA010F0CEAD11337
:1019900048BF42F48072624538BF634504D280EA92
:1019A000010000F00040704710B500F01AF800BFC9
:1019B0008900013E00F007B800F009B85FEA410C69
:1019C0005FEA1C6C08D080EA010000F050B85FEAC2
:1019D000400C5FEA1C6CF6D14FF00040A0F580008F
:1019E00070470EF1020E2EF0030E5EF8044B2442F7
:1019F00004D44FEA4102B2F17F4F11D84FEA4003BD
:101A0000B3F17F4F0CD80ED14FEAD07CB2F17F4FAB
:101A10000CEB4C0C0CF1020C08BF4CEBD17C04E03D
:101A20004FF0080C01E04FEAD17C0CEB4C0324FA98
:101A300003F404F00704B4F1040C06D20EEB840C9A
:101A4000BDE810404CF0010C6047DFE80CF00708DF
:101A500002024FF00040A0F5800010BD0846420091
:101A600018BFD2F1807288BF00F0004010BDFF2186
:101A700041EAD050C005704751EA000C00F11380D4
:101A80001CF5000F58BFBCF5000F01D48142704710
:101A900007D711F5000F58BF10F5000F15D481427C
:101AA0007047894270471CF5000F04D5BCF5000F44
:101AB000F7D5884270474FF0807C1CEB410F38BF50
:101AC0001CEB400F01D28842704780EA010081EA96
:101AD000000180EA0100FFF7F8BE000000000000EE
:101AE00000000000000000000000000000F80000FE
:101AF0000000000000333000000000100C06100C45
:101B00000600000000000000000040C07840C078DF
:101B10004000043F04043F040400007088FC0830C7
:101B20000000001820FF211E0000F008F000E0185F
:101B3000000000211C031E211E0000F00888700018
:101B400000001E2123241927211010160E0000006A
:101B500000000000000000000000000000E0180489
:101B60000200000000071820400000020418E000F6
:101B700000000040201807000000404080F0804036
:101B800040000202010F01020200000000F000000C
:101B900000000101011F0101010000000000000020
:101BA000000080B070000000000000000000000095
:101BB000000000010101010101010000000000001E
:101BC00000000030300000000000000000008060D5
:101BD0001804006018060100000000E0100808105A
:101BE000E000000F102020100F00001010F800007F
:101BF00000000020203F2020000000700808088816
:101C000070000030282422213000003008888848E5
:101C100030000018202020110E000000C02010F815
:101C2000000000070424243F240000F808888808E6
:101C300008000019212020110E0000E010888818EB
:101C40000000000F112020110E0000380808C838CD
:101C500008000000003F00000000007088080888AD
:101C60007000001C222121221C0000E01008081036
:101C7000E0000000312222110F00000000C0C0006F
:101C80000000000000303000000000000080000074
:101C90000000000080600000000000008040201074
:101CA000080000010204081020004040404040406D
:101CB00040000404040404040400000810204080D0
:101CC0000000002010080402010000704808080805
:101CD000F0000000003036010000C030C828E810D5
:101CE000E0000718272423140B000000C038E00090
:101CF0000000203C23020227382008F888888870DA
:101D00000000203F202020110E00C03008080808E5
:101D10003800071820202010080008F808080810CC
:101D2000E000203F202020100F0008F88888E808F5
:101D30001000203F20202320180008F88888E80899
:101D40001000203F200003000000C03008080838C1
:101D5000000007182020221E020008F808000008D2
:101D6000F808203F210101213F20000808F8080859
:101D700000000020203F2020000000000808F80894
:101D80000800C08080807F00000008F888C0281804
:101D90000800203F20012638200008F80800000035
:101DA0000000203F20202020300008F8F800F8F83C
:101DB0000800203F003F003F200008F830C0000826
:101DC000F808203F200007183F00E010080808101E
:101DD000E0000F10202020100F0008F80808080865
:101DE000F000203F210101010000E0100808081068
:101DF000E0000F18242438504F0008F8888888889D
:101E00007000203F2000030C302000708808080874
:101E100038000038202121221C00180808F8080882
:101E200018000000203F2000000008F8080000080B
:101E3000F808001F202020201F000878880000C814
:101E40003808000007380E010000F80800F8000804
:101E5000F800033C0700073C03000818688080680E
:101E6000180820302C03032C30200838C800C8384C
:101E700008000000203F2000000010080808C838B3
:101E800008002038262120201800000000FE020251
:101E900002000000007F40404000000C30C0000005
:101EA0000000000000010638C00000020202FE002F
:101EB0000000004040407F000000000004020202D9
:101EC000040000000000000000000000000000000E
:101ED00000008080808080808080000202040000FA
:101EE00000000000000000000000000080808080F2
:101EF00000000019242222223F2008F800808000E0
:101F00000000003F112020110E00000000808080A2
:101F10000000000E112020201100000000808088A9
:101F2000F800000E112020103F20000080808080EB
:101F30000000001F222222221300008080F08888E7
:101F400088180020203F2020000000008080808032
:101F50008000006B94949493600008F80080808067
:101F60000000203F210000203F20008098980000C2
:101F700000000020203F20200000000000809898F2
:101F8000000000C08080807F000008F80000808092
:101F90008000203F24022D302000000808F80000B7
:101FA00000000020203F2020000080808080808072
:101FB0008000203F20003F20003F80800080808004
:101FC0000000203F210000203F2000008080808012
:101FD0000000001F202020201F0080800080800043
:101FE000000080FFA12020110E00000000808080F2
:101FF0008000000E112020A0FF8080808000808063
:10200000800020203F21200001000000808080808F
:1020100080000033242424241900008080E0808084
:1020200000000000001F20200000808000000080D1
:102030008000001F202020103F2080808000008032
:10204000808000010E300806010080800080008042
:1020500080800F300C030C300F00008080008080E7
:1020600080000020312E0E31200080808000008012
:10207000808080818E7018060100008080808080C2
:1020800080000021302C2221300000000000807CE4
:10209000020200000000003F404000000000FF007E
:1020A000000000000000FF0000000002027C800031
:1020B00000000040403F0000000000060101020255
:1020C000040400000000000000000000DC20000804
:0C20D0000000002060060000280100084D
:04000005080000ED02
:00000001FF
